{
  "_format": "hh-sol-artifact-1",
  "contractName": "MerkleDistributor",
  "sourceName": "contracts/MerkleDistributor.sol",
  "abi": [
    {
      "inputs": [
        {
          "internalType": "address",
          "name": "token_",
          "type": "address"
        },
        {
          "internalType": "bytes32",
          "name": "merkleRoot_",
          "type": "bytes32"
        }
      ],
      "stateMutability": "nonpayable",
      "type": "constructor"
    },
    {
      "inputs": [
        {
          "internalType": "address",
          "name": "target",
          "type": "address"
        }
      ],
      "name": "AddressEmptyCode",
      "type": "error"
    },
    {
      "inputs": [
        {
          "internalType": "address",
          "name": "account",
          "type": "address"
        }
      ],
      "name": "AddressInsufficientBalance",
      "type": "error"
    },
    {
      "inputs": [],
      "name": "AlreadyClaimed",
      "type": "error"
    },
    {
      "inputs": [],
      "name": "FailedInnerCall",
      "type": "error"
    },
    {
      "inputs": [],
      "name": "InvalidProof",
      "type": "error"
    },
    {
      "inputs": [
        {
          "internalType": "address",
          "name": "token",
          "type": "address"
        }
      ],
      "name": "SafeERC20FailedOperation",
      "type": "error"
    },
    {
      "anonymous": false,
      "inputs": [
        {
          "indexed": false,
          "internalType": "uint256",
          "name": "index",
          "type": "uint256"
        },
        {
          "indexed": false,
          "internalType": "address",
          "name": "account",
          "type": "address"
        },
        {
          "indexed": false,
          "internalType": "uint256",
          "name": "amount",
          "type": "uint256"
        }
      ],
      "name": "Claimed",
      "type": "event"
    },
    {
      "inputs": [
        {
          "internalType": "uint256",
          "name": "index",
          "type": "uint256"
        },
        {
          "internalType": "address",
          "name": "account",
          "type": "address"
        },
        {
          "internalType": "uint256",
          "name": "amount",
          "type": "uint256"
        },
        {
          "internalType": "bytes32[]",
          "name": "merkleProof",
          "type": "bytes32[]"
        }
      ],
      "name": "claim",
      "outputs": [],
      "stateMutability": "nonpayable",
      "type": "function"
    },
    {
      "inputs": [
        {
          "internalType": "uint256",
          "name": "index",
          "type": "uint256"
        }
      ],
      "name": "isClaimed",
      "outputs": [
        {
          "internalType": "bool",
          "name": "",
          "type": "bool"
        }
      ],
      "stateMutability": "view",
      "type": "function"
    },
    {
      "inputs": [],
      "name": "merkleRoot",
      "outputs": [
        {
          "internalType": "bytes32",
          "name": "",
          "type": "bytes32"
        }
      ],
      "stateMutability": "view",
      "type": "function"
    },
    {
      "inputs": [],
      "name": "token",
      "outputs": [
        {
          "internalType": "address",
          "name": "",
          "type": "address"
        }
      ],
      "stateMutability": "view",
      "type": "function"
    }
  ],
  "bytecode": "0x60c060405234801561001057600080fd5b506040516107c53803806107c583398101604081905261002f91610045565b6001600160a01b0390911660805260a05261007f565b6000806040838503121561005857600080fd5b82516001600160a01b038116811461006f57600080fd5b6020939093015192949293505050565b60805160a0516107156100b060003960008181606b01526101a901526000818160c8015261020701526107156000f3fe608060405234801561001057600080fd5b506004361061004c5760003560e01c80632e7ba6ef146100515780632eb4a7ab146100665780639e34070f146100a0578063fc0c546a146100c3575b600080fd5b61006461005f366004610555565b610102565b005b61008d7f000000000000000000000000000000000000000000000000000000000000000081565b6040519081526020015b60405180910390f35b6100b36100ae3660046105fa565b61027f565b6040519015158152602001610097565b6100ea7f000000000000000000000000000000000000000000000000000000000000000081565b6040516001600160a01b039091168152602001610097565b61010b8561027f565b1561012957604051630c8d9eab60e31b815260040160405180910390fd5b60408051602081018790526bffffffffffffffffffffffff19606087901b1691810191909152605481018490526000906074016040516020818303038152906040528051906020012090506101d48383808060200260200160405190810160405280939291908181526020018383602002808284376000920191909152507f000000000000000000000000000000000000000000000000000000000000000092508591506102c09050565b6101f1576040516309bde33960e01b815260040160405180910390fd5b6101fa866102d8565b61022e6001600160a01b037f0000000000000000000000000000000000000000000000000000000000000000168686610316565b604080518781526001600160a01b03871660208201529081018590527f4ec90e965519d92681267467f775ada5bd214aa92c0dc93d90a5e880ce9ed0269060600160405180910390a1505050505050565b60008061028e61010084610629565b9050600061029e6101008561063d565b60009283526020839052604090922054600190921b9182169091149392505050565b6000826102cd858461036d565b1490505b9392505050565b60006102e661010083610629565b905060006102f66101008461063d565b6000928352602083905260409092208054600190931b9092179091555050565b604080516001600160a01b038416602482015260448082018490528251808303909101815260649091019091526020810180516001600160e01b031663a9059cbb60e01b1790526103689084906103ba565b505050565b600081815b84518110156103b25761039e8286838151811061039157610391610651565b6020026020010151610422565b9150806103aa81610667565b915050610372565b509392505050565b60006103cf6001600160a01b0384168361044e565b905080516000141580156103f45750808060200190518101906103f2919061068e565b155b1561036857604051635274afe760e01b81526001600160a01b03841660048201526024015b60405180910390fd5b600081831061043e5760008281526020849052604090206102d1565b5060009182526020526040902090565b60606102d18383600084600080856001600160a01b0316848660405161047491906106b0565b60006040518083038185875af1925050503d80600081146104b1576040519150601f19603f3d011682016040523d82523d6000602084013e6104b6565b606091505b50915091506104c68683836104d0565b9695505050505050565b6060826104e5576104e08261052c565b6102d1565b81511580156104fc57506001600160a01b0384163b155b1561052557604051639996b31560e01b81526001600160a01b0385166004820152602401610419565b50806102d1565b80511561053c5780518082602001fd5b604051630a12f52160e11b815260040160405180910390fd5b60008060008060006080868803121561056d57600080fd5b8535945060208601356001600160a01b038116811461058b57600080fd5b935060408601359250606086013567ffffffffffffffff808211156105af57600080fd5b818801915088601f8301126105c357600080fd5b8135818111156105d257600080fd5b8960208260051b85010111156105e757600080fd5b9699959850939650602001949392505050565b60006020828403121561060c57600080fd5b5035919050565b634e487b7160e01b600052601260045260246000fd5b60008261063857610638610613565b500490565b60008261064c5761064c610613565b500690565b634e487b7160e01b600052603260045260246000fd5b60006001820161068757634e487b7160e01b600052601160045260246000fd5b5060010190565b6000602082840312156106a057600080fd5b815180151581146102d157600080fd5b6000825160005b818110156106d157602081860181015185830152016106b7565b50600092019182525091905056fea26469706673582212209c157eafbae276d6b4cc54f4e9051645f5ba3f80923092d307a93e288c78732164736f6c63430008140033",
  "linkReferences": {},
  "deployedLinkReferences": {}
}