{
  "_format": "hh-sol-artifact-1",
  "contractName": "TokenSwap",
  "sourceName": "contracts/swap.sol",
  "abi": [
    {
      "inputs": [],
      "stateMutability": "nonpayable",
      "type": "constructor"
    },
    {
      "inputs": [
        {
          "internalType": "address",
          "name": "target",
          "type": "address"
        }
      ],
      "name": "AddressEmptyCode",
      "type": "error"
    },
    {
      "inputs": [
        {
          "internalType": "address",
          "name": "implementation",
          "type": "address"
        }
      ],
      "name": "ERC1967InvalidImplementation",
      "type": "error"
    },
    {
      "inputs": [],
      "name": "ERC1967NonPayable",
      "type": "error"
    },
    {
      "inputs": [],
      "name": "FailedInnerCall",
      "type": "error"
    },
    {
      "inputs": [],
      "name": "InvalidInitialization",
      "type": "error"
    },
    {
      "inputs": [],
      "name": "NotInitializing",
      "type": "error"
    },
    {
      "inputs": [
        {
          "internalType": "address",
          "name": "owner",
          "type": "address"
        }
      ],
      "name": "OwnableInvalidOwner",
      "type": "error"
    },
    {
      "inputs": [
        {
          "internalType": "address",
          "name": "account",
          "type": "address"
        }
      ],
      "name": "OwnableUnauthorizedAccount",
      "type": "error"
    },
    {
      "inputs": [],
      "name": "UUPSUnauthorizedCallContext",
      "type": "error"
    },
    {
      "inputs": [
        {
          "internalType": "bytes32",
          "name": "slot",
          "type": "bytes32"
        }
      ],
      "name": "UUPSUnsupportedProxiableUUID",
      "type": "error"
    },
    {
      "anonymous": false,
      "inputs": [
        {
          "indexed": false,
          "internalType": "uint64",
          "name": "version",
          "type": "uint64"
        }
      ],
      "name": "Initialized",
      "type": "event"
    },
    {
      "anonymous": false,
      "inputs": [
        {
          "indexed": true,
          "internalType": "address",
          "name": "previousOwner",
          "type": "address"
        },
        {
          "indexed": true,
          "internalType": "address",
          "name": "newOwner",
          "type": "address"
        }
      ],
      "name": "OwnershipTransferred",
      "type": "event"
    },
    {
      "anonymous": false,
      "inputs": [
        {
          "indexed": true,
          "internalType": "address",
          "name": "user",
          "type": "address"
        },
        {
          "indexed": false,
          "internalType": "uint256",
          "name": "amountIn",
          "type": "uint256"
        },
        {
          "indexed": false,
          "internalType": "uint256",
          "name": "feeAmount",
          "type": "uint256"
        },
        {
          "indexed": false,
          "internalType": "uint256",
          "name": "amountOut",
          "type": "uint256"
        }
      ],
      "name": "Swap",
      "type": "event"
    },
    {
      "anonymous": false,
      "inputs": [
        {
          "indexed": true,
          "internalType": "address",
          "name": "implementation",
          "type": "address"
        }
      ],
      "name": "Upgraded",
      "type": "event"
    },
    {
      "anonymous": false,
      "inputs": [
        {
          "indexed": true,
          "internalType": "address",
          "name": "user",
          "type": "address"
        },
        {
          "indexed": true,
          "internalType": "address",
          "name": "token",
          "type": "address"
        },
        {
          "indexed": false,
          "internalType": "uint256",
          "name": "amount",
          "type": "uint256"
        }
      ],
      "name": "Withdraw",
      "type": "event"
    },
    {
      "inputs": [],
      "name": "UPGRADE_INTERFACE_VERSION",
      "outputs": [
        {
          "internalType": "string",
          "name": "",
          "type": "string"
        }
      ],
      "stateMutability": "view",
      "type": "function"
    },
    {
      "inputs": [
        {
          "internalType": "uint256",
          "name": "amount",
          "type": "uint256"
        }
      ],
      "name": "calculateFee",
      "outputs": [
        {
          "internalType": "uint256",
          "name": "feeAmount",
          "type": "uint256"
        }
      ],
      "stateMutability": "pure",
      "type": "function"
    },
    {
      "inputs": [],
      "name": "getContractBalances",
      "outputs": [
        {
          "internalType": "uint256",
          "name": "",
          "type": "uint256"
        },
        {
          "internalType": "uint256",
          "name": "",
          "type": "uint256"
        }
      ],
      "stateMutability": "view",
      "type": "function"
    },
    {
      "inputs": [
        {
          "internalType": "address",
          "name": "owner",
          "type": "address"
        },
        {
          "internalType": "address",
          "name": "_token1",
          "type": "address"
        },
        {
          "internalType": "address",
          "name": "_token2",
          "type": "address"
        }
      ],
      "name": "initialize",
      "outputs": [],
      "stateMutability": "nonpayable",
      "type": "function"
    },
    {
      "inputs": [],
      "name": "owner",
      "outputs": [
        {
          "internalType": "address",
          "name": "",
          "type": "address"
        }
      ],
      "stateMutability": "view",
      "type": "function"
    },
    {
      "inputs": [],
      "name": "proxiableUUID",
      "outputs": [
        {
          "internalType": "bytes32",
          "name": "",
          "type": "bytes32"
        }
      ],
      "stateMutability": "view",
      "type": "function"
    },
    {
      "inputs": [],
      "name": "renounceOwnership",
      "outputs": [],
      "stateMutability": "nonpayable",
      "type": "function"
    },
    {
      "inputs": [
        {
          "internalType": "uint256",
          "name": "amount",
          "type": "uint256"
        }
      ],
      "name": "swap",
      "outputs": [],
      "stateMutability": "nonpayable",
      "type": "function"
    },
    {
      "inputs": [],
      "name": "token1",
      "outputs": [
        {
          "internalType": "contract ERC20Upgradeable",
          "name": "",
          "type": "address"
        }
      ],
      "stateMutability": "view",
      "type": "function"
    },
    {
      "inputs": [],
      "name": "token2",
      "outputs": [
        {
          "internalType": "contract ERC20Upgradeable",
          "name": "",
          "type": "address"
        }
      ],
      "stateMutability": "view",
      "type": "function"
    },
    {
      "inputs": [
        {
          "internalType": "address",
          "name": "newOwner",
          "type": "address"
        }
      ],
      "name": "transferOwnership",
      "outputs": [],
      "stateMutability": "nonpayable",
      "type": "function"
    },
    {
      "inputs": [
        {
          "internalType": "address",
          "name": "newImplementation",
          "type": "address"
        },
        {
          "internalType": "bytes",
          "name": "data",
          "type": "bytes"
        }
      ],
      "name": "upgradeToAndCall",
      "outputs": [],
      "stateMutability": "payable",
      "type": "function"
    },
    {
      "inputs": [
        {
          "internalType": "address",
          "name": "token",
          "type": "address"
        },
        {
          "internalType": "uint256",
          "name": "amount",
          "type": "uint256"
        }
      ],
      "name": "withdraw",
      "outputs": [],
      "stateMutability": "nonpayable",
      "type": "function"
    }
  ],
  "bytecode": "0x60a06040523060805234801561001457600080fd5b5061001d610022565b6100d4565b7ff0c57e16840df040f15088dc2f81fe391c3923bec73e23a9662efc9c229c6a00805468010000000000000000900460ff16156100725760405163f92ee8a960e01b815260040160405180910390fd5b80546001600160401b03908116146100d15780546001600160401b0319166001600160401b0390811782556040519081527fc7f505b2f371ae2175ee4913f4499e1f2633a7b5936321eed1cdaeb6115181d29060200160405180910390a15b50565b6080516113656100fd60003960008181610ab401528181610add0152610c2301526113656000f3fe6080604052600436106100c25760003560e01c806399a5d7471161007f578063d21220a711610059578063d21220a71461022c578063f2fde38b1461024c578063f3fef3a31461026c578063ffd2a7d31461028c57600080fd5b806399a5d747146101ae578063ad3cb1cc146101ce578063c0c53b8b1461020c57600080fd5b806325be124e146100c75780634f1ef2861461010457806352d1902d14610119578063715018a61461013c5780638da5cb5b1461015157806394b918de1461018e575b600080fd5b3480156100d357600080fd5b506001546100e7906001600160a01b031681565b6040516001600160a01b0390911681526020015b60405180910390f35b610117610112366004610fa1565b6102b6565b005b34801561012557600080fd5b5061012e6102d5565b6040519081526020016100fb565b34801561014857600080fd5b506101176102f2565b34801561015d57600080fd5b507f9016d09d72d40fdae2fd8ceac6b6234c7706214fd39c1cd1e609a0528c199300546001600160a01b03166100e7565b34801561019a57600080fd5b506101176101a936600461106b565b610306565b3480156101ba57600080fd5b5061012e6101c936600461106b565b610712565b3480156101da57600080fd5b506101ff604051806040016040528060058152602001640352e302e360dc1b81525081565b6040516100fb91906110a8565b34801561021857600080fd5b506101176102273660046110db565b610732565b34801561023857600080fd5b506000546100e7906001600160a01b031681565b34801561025857600080fd5b5061011761026736600461111e565b61087c565b34801561027857600080fd5b50610117610287366004611139565b6108ba565b34801561029857600080fd5b506102a16109c8565b604080519283526020830191909152016100fb565b6102be610aa9565b6102c782610b4e565b6102d18282610b56565b5050565b60006102df610c18565b5060008051602061131083398151915290565b6102fa610c61565b6103046000610cbc565b565b6000811161035b5760405162461bcd60e51b815260206004820152601d60248201527f416d6f756e74206d7573742062652067726561746572207468616e203000000060448201526064015b60405180910390fd5b6000546040516370a0823160e01b815233600482015282916001600160a01b0316906370a0823190602401602060405180830381865afa1580156103a3573d6000803e3d6000fd5b505050506040513d601f19601f820116820180604052508101906103c79190611163565b10156104155760405162461bcd60e51b815260206004820152601b60248201527f496e73756666696369656e7420746f6b656e312062616c616e636500000000006044820152606401610352565b600054604051636eb1769f60e11b815233600482015230602482015282916001600160a01b03169063dd62ed3e90604401602060405180830381865afa158015610463573d6000803e3d6000fd5b505050506040513d601f19601f820116820180604052508101906104879190611163565b10156104d55760405162461bcd60e51b815260206004820152601d60248201527f496e73756666696369656e7420746f6b656e3120616c6c6f77616e63650000006044820152606401610352565b60006104e082610712565b905060006104ee8284611192565b905060006104fe600c600a61128c565b6105089083611298565b6001546040516370a0823160e01b815230600482015291925082916001600160a01b03909116906370a0823190602401602060405180830381865afa158015610555573d6000803e3d6000fd5b505050506040513d601f19601f820116820180604052508101906105799190611163565b10156105d75760405162461bcd60e51b815260206004820152602760248201527f496e73756666696369656e7420746f6b656e322062616c616e636520696e20636044820152661bdb9d1c9858dd60ca1b6064820152608401610352565b6000546040516323b872dd60e01b8152336004820152306024820152604481018690526001600160a01b03909116906323b872dd906064016020604051808303816000875af115801561062e573d6000803e3d6000fd5b505050506040513d601f19601f8201168201806040525081019061065291906112af565b5060015460405163a9059cbb60e01b8152336004820152602481018390526001600160a01b039091169063a9059cbb906044016020604051808303816000875af11580156106a4573d6000803e3d6000fd5b505050506040513d601f19601f820116820180604052508101906106c891906112af565b50604080518581526020810185905290810182905233907f5620e542b9ce6a03dbe5af2c6483e766af6c96439562b26a0dcd2edd7099524b9060600160405180910390a250505050565b6000612710610722600a84611298565b61072c91906112d1565b92915050565b7ff0c57e16840df040f15088dc2f81fe391c3923bec73e23a9662efc9c229c6a008054600160401b810460ff16159067ffffffffffffffff166000811580156107785750825b905060008267ffffffffffffffff1660011480156107955750303b155b9050811580156107a3575080155b156107c15760405163f92ee8a960e01b815260040160405180910390fd5b845467ffffffffffffffff1916600117855583156107eb57845460ff60401b1916600160401b1785555b6107f488610d2d565b6107fc610d3e565b600080546001600160a01b03808a166001600160a01b0319928316179092556001805492891692909116919091179055831561087257845460ff60401b19168555604051600181527fc7f505b2f371ae2175ee4913f4499e1f2633a7b5936321eed1cdaeb6115181d29060200160405180910390a15b5050505050505050565b610884610c61565b6001600160a01b0381166108ae57604051631e4fbdf760e01b815260006004820152602401610352565b6108b781610cbc565b50565b6108c2610c61565b600081116109125760405162461bcd60e51b815260206004820152601d60248201527f416d6f756e74206d7573742062652067726561746572207468616e20300000006044820152606401610352565b60405163a9059cbb60e01b8152336004820152602481018290526001600160a01b0383169063a9059cbb906044016020604051808303816000875af115801561095f573d6000803e3d6000fd5b505050506040513d601f19601f8201168201806040525081019061098391906112af565b506040518181526001600160a01b0383169033907f9b1bfa7fa9ee420a16e124f794c35ac9f90472acc99140eb2f6447c714cad8eb9060200160405180910390a35050565b600080546040516370a0823160e01b815230600482015282916001600160a01b0316906370a0823190602401602060405180830381865afa158015610a11573d6000803e3d6000fd5b505050506040513d601f19601f82011682018060405250810190610a359190611163565b6001546040516370a0823160e01b81523060048201526001600160a01b03909116906370a0823190602401602060405180830381865afa158015610a7d573d6000803e3d6000fd5b505050506040513d601f19601f82011682018060405250810190610aa19190611163565b915091509091565b306001600160a01b037f0000000000000000000000000000000000000000000000000000000000000000161480610b3057507f00000000000000000000000000000000000000000000000000000000000000006001600160a01b0316610b24600080516020611310833981519152546001600160a01b031690565b6001600160a01b031614155b156103045760405163703e46dd60e11b815260040160405180910390fd5b6108b7610c61565b816001600160a01b03166352d1902d6040518163ffffffff1660e01b8152600401602060405180830381865afa925050508015610bb0575060408051601f3d908101601f19168201909252610bad91810190611163565b60015b610bd857604051634c9c8ce360e01b81526001600160a01b0383166004820152602401610352565b6000805160206113108339815191528114610c0957604051632a87526960e21b815260048101829052602401610352565b610c138383610d46565b505050565b306001600160a01b037f000000000000000000000000000000000000000000000000000000000000000016146103045760405163703e46dd60e11b815260040160405180910390fd5b33610c937f9016d09d72d40fdae2fd8ceac6b6234c7706214fd39c1cd1e609a0528c199300546001600160a01b031690565b6001600160a01b0316146103045760405163118cdaa760e01b8152336004820152602401610352565b7f9016d09d72d40fdae2fd8ceac6b6234c7706214fd39c1cd1e609a0528c19930080546001600160a01b031981166001600160a01b03848116918217845560405192169182907f8be0079c531659141344cd1fd0a4f28419497f9722a3daafe3b4186f6b6457e090600090a3505050565b610d35610d9c565b6108b781610de5565b610304610d9c565b610d4f82610ded565b6040516001600160a01b038316907fbc7cd75a20ee27fd9adebab32041f755214dbc6bffa90cc0225b39da2e5c2d3b90600090a2805115610d9457610c138282610e52565b6102d1610ec8565b7ff0c57e16840df040f15088dc2f81fe391c3923bec73e23a9662efc9c229c6a0054600160401b900460ff1661030457604051631afcd79f60e31b815260040160405180910390fd5b610884610d9c565b806001600160a01b03163b600003610e2357604051634c9c8ce360e01b81526001600160a01b0382166004820152602401610352565b60008051602061131083398151915280546001600160a01b0319166001600160a01b0392909216919091179055565b6060600080846001600160a01b031684604051610e6f91906112f3565b600060405180830381855af49150503d8060008114610eaa576040519150601f19603f3d011682016040523d82523d6000602084013e610eaf565b606091505b5091509150610ebf858383610ee7565b95945050505050565b34156103045760405163b398979f60e01b815260040160405180910390fd5b606082610efc57610ef782610f46565b610f3f565b8151158015610f1357506001600160a01b0384163b155b15610f3c57604051639996b31560e01b81526001600160a01b0385166004820152602401610352565b50805b9392505050565b805115610f565780518082602001fd5b604051630a12f52160e11b815260040160405180910390fd5b80356001600160a01b0381168114610f8657600080fd5b919050565b634e487b7160e01b600052604160045260246000fd5b60008060408385031215610fb457600080fd5b610fbd83610f6f565b9150602083013567ffffffffffffffff811115610fd957600080fd5b8301601f81018513610fea57600080fd5b803567ffffffffffffffff81111561100457611004610f8b565b604051601f8201601f19908116603f0116810167ffffffffffffffff8111828210171561103357611033610f8b565b60405281815282820160200187101561104b57600080fd5b816020840160208301376000602083830101528093505050509250929050565b60006020828403121561107d57600080fd5b5035919050565b60005b8381101561109f578181015183820152602001611087565b50506000910152565b60208152600082518060208401526110c7816040850160208701611084565b601f01601f19169190910160400192915050565b6000806000606084860312156110f057600080fd5b6110f984610f6f565b925061110760208501610f6f565b915061111560408501610f6f565b90509250925092565b60006020828403121561113057600080fd5b610f3f82610f6f565b6000806040838503121561114c57600080fd5b61115583610f6f565b946020939093013593505050565b60006020828403121561117557600080fd5b5051919050565b634e487b7160e01b600052601160045260246000fd5b8181038181111561072c5761072c61117c565b6001815b60018411156111e0578085048111156111c4576111c461117c565b60018416156111d257908102905b60019390931c9280026111a9565b935093915050565b6000826111f75750600161072c565b816112045750600061072c565b816001811461121a576002811461122457611240565b600191505061072c565b60ff8411156112355761123561117c565b50506001821b61072c565b5060208310610133831016604e8410600b8410161715611263575081810a61072c565b61127060001984846111a5565b80600019048211156112845761128461117c565b029392505050565b6000610f3f83836111e8565b808202811582820484141761072c5761072c61117c565b6000602082840312156112c157600080fd5b81518015158114610f3f57600080fd5b6000826112ee57634e487b7160e01b600052601260045260246000fd5b500490565b60008251611305818460208701611084565b919091019291505056fe360894a13ba1a3210667c828492db98dca3e2076cc3735a920a3ca505d382bbca2646970667358221220c247adf1b563b71c5cf55ee4afbd41dcaa85941c816db8256c58b87e7948d43464736f6c634300081b0033",
  "linkReferences": {},
  "deployedLinkReferences": {}
}